{
  "contractName": "Bank",
  "abi": [
    {
      "inputs": [
        {
          "internalType": "uint256",
          "name": "amount",
          "type": "uint256"
        }
      ],
      "stateMutability": "nonpayable",
      "type": "constructor"
    },
    {
      "inputs": [
        {
          "internalType": "uint256",
          "name": "amount",
          "type": "uint256"
        }
      ],
      "name": "deposit",
      "outputs": [],
      "stateMutability": "nonpayable",
      "type": "function"
    },
    {
      "inputs": [
        {
          "internalType": "uint256",
          "name": "amount",
          "type": "uint256"
        }
      ],
      "name": "withdrawel",
      "outputs": [],
      "stateMutability": "nonpayable",
      "type": "function"
    },
    {
      "inputs": [],
      "name": "balance",
      "outputs": [
        {
          "internalType": "uint256",
          "name": "",
          "type": "uint256"
        }
      ],
      "stateMutability": "view",
      "type": "function"
    },
    {
      "inputs": [
        {
          "internalType": "uint256",
          "name": "amount",
          "type": "uint256"
        }
      ],
      "name": "checkValue",
      "outputs": [
        {
          "internalType": "bool",
          "name": "",
          "type": "bool"
        }
      ],
      "stateMutability": "view",
      "type": "function"
    },
    {
      "inputs": [],
      "name": "loan",
      "outputs": [
        {
          "internalType": "bool",
          "name": "",
          "type": "bool"
        }
      ],
      "stateMutability": "view",
      "type": "function"
    }
  ],
  "bytecode": "0x608060405234801561001057600080fd5b506040516103d53803806103d58339818101604052810190610032919061007a565b80600081905550506100a7565b600080fd5b6000819050919050565b61005781610044565b811461006257600080fd5b50565b6000815190506100748161004e565b92915050565b6000602082840312156100905761008f61003f565b5b600061009e84828501610065565b91505092915050565b61031f806100b66000396000f3fe608060405234801561001057600080fd5b50600436106100575760003560e01c806318db62fb1461005c5780631fad29531461008c578063b69ef8a8146100a8578063b6b55f25146100c6578063d285b7b4146100e2575b600080fd5b610076600480360381019061007191906101a3565b610100565b60405161008391906101eb565b60405180910390f35b6100a660048036038101906100a191906101a3565b61010e565b005b6100b0610138565b6040516100bd9190610215565b60405180910390f35b6100e060048036038101906100db91906101a3565b610141565b005b6100ea61015c565b6040516100f791906101eb565b60405180910390f35b600081600054119050919050565b61011781610100565b15610135578060008082825461012d919061025f565b925050819055505b50565b60008054905090565b806000808282546101529190610293565b9250508190555050565b60008060005411905090565b600080fd5b6000819050919050565b6101808161016d565b811461018b57600080fd5b50565b60008135905061019d81610177565b92915050565b6000602082840312156101b9576101b8610168565b5b60006101c78482850161018e565b91505092915050565b60008115159050919050565b6101e5816101d0565b82525050565b600060208201905061020060008301846101dc565b92915050565b61020f8161016d565b82525050565b600060208201905061022a6000830184610206565b92915050565b7f4e487b7100000000000000000000000000000000000000000000000000000000600052601160045260246000fd5b600061026a8261016d565b91506102758361016d565b92508282101561028857610287610230565b5b828203905092915050565b600061029e8261016d565b91506102a98361016d565b9250827fffffffffffffffffffffffffffffffffffffffffffffffffffffffffffffffff038211156102de576102dd610230565b5b82820190509291505056fea2646970667358221220427944a6370069d3811b546a19f751ff9664c4ac58078a87f439b55b117aeaa064736f6c634300080a0033",
  "immutableReferences": {},
  "source": "// SPDX-License-Identifier: MIT\n\npragma solidity ^0.8.7;\n\ninterface Regulator {\n    function checkValue(uint amount) external returns (bool);\n    function loan() external returns (bool);\n}\n\ncontract Bank is Regulator{\n\n    // The internal modifer means that the function \n    // can only be called within the contract itself and any derived contracts.\n    // ex. uint internal myInternalValue\n\n    uint private bankValue;\n\n    constructor(uint amount) {\n\n        bankValue = amount;\n    }\n\n    function deposit(uint amount) public {\n        bankValue += amount;\n    }\n\n    function withdrawel(uint amount) public {\n\n        if (checkValue(amount)){\n             bankValue -= amount;\n\n        }\n    }\n\n    function balance() public view returns (uint) {\n\n        return bankValue;\n    }\n\n    // Override\n\n    function checkValue(uint amount) public override view returns (bool) {\n\n        return bankValue > amount;\n\n    }\n\n    function loan() public override view returns (bool) {\n\n        return bankValue > 0;\n\n    }\n\n}\n\ncontract Lesson2 is Bank(10) {\n\n    // Opposite of Java - private String firstName;\n    string private name;\n    uint private age;\n\n\n    function setName(string memory newName) public {\n        \n        name = newName;\n\n    }\n\n    function getName() public view returns (string memory) {\n        return name;\n\n    }\n\n    function setAge(uint newAge) public {\n        age = newAge;\n    }\n\n    function getAge() public view returns (uint) {\n        return age;\n\n    }\n\n    \n\n}",
  "sourcePath": "/Users/jordan/VScode/solidityCompile/contracts/Lesson2-inheritance.sol",
  "compiler": {
    "name": "solc",
    "version": "0.8.10+commit.fc410830.Emscripten.clang"
  },
  "schemaVersion": "3.4.4",
  "updatedAt": "2021-12-18T15:08:44.731Z",
  "devdoc": {
    "kind": "dev",
    "methods": {},
    "version": 1
  },
  "userdoc": {
    "kind": "user",
    "methods": {},
    "version": 1
  }
}